:020000040800F2
:10000000280E002059030008E12F0008E32F000804
:10001000E72F0008EB2F0008EF2F0008000000007A
:10002000000000000000000000000000F32F0008A6
:10003000F52F000800000000F72F0008F92F000836
:1000400073030008730300087303000873030008B8
:1000500073030008730300087303000873030008A8
:100060007303000873030008730300087303000898
:100070007303000873030008730300087303000888
:100080007303000873030008730300087303000878
:100090007303000873030008730300087303000868
:1000A0007303000873030008730300087303000858
:1000B00073030008DF100008F50F00087303000841
:1000C0007303000873030008730300087303000838
:1000D00073030008BD1B00087303000873030008C6
:1000E00073030008730300087303000800F002F8AC
:1000F00000F03FF80AA090E8000C82448344AAF183
:100100000107DA4501D100F034F8AFF2090EBAE880
:100110000F0013F0010F18BFFB1A43F0010318473B
:10012000407F0000607F0000103A24BF78C878C18B
:10013000FAD8520724BF30C830C144BF04680C60ED
:10014000704700000023002400250026103A28BF35
:1001500078C1FBD8520728BF30C148BF0B60704739
:10016000642905F0C384002070471FB51FBD10B57A
:1001700010BD05F099FD1146FFF7F7FF02F0A2FE52
:1001800005F0B7FD03B4FFF7F2FF03BC01F044FC38
:1001900000210020674A126842F48032654B1A60E1
:1001A00000BF644A126802F40030491C10B9B1F56E
:1001B000A06FF6D15F4A126812F4003F01D001200F
:1001C00000E00020012842D15B4A126842F0100290
:1001D000594B1A601A46126822F003021A601A4636
:1001E000126842F002021A60524A5268514B5A6039
:1001F0001A4652685A601A46526842F480625A603F
:100200001A46526822F47C125A601A46526842F426
:10021000E8125A601A46126842F080721A6000BFF3
:10022000444A126812F0007FFAD0424A526822F023
:100230000302404B5A601A46526842F002025A606A
:1002400000BF3C4A526802F00C02082AF9D17047FC
:1002500010B5FFF79DFF10BD10B53648006840F09F
:100260000100344908600846406834490840314973
:10027000486008460068324908402E490860084630
:10028000006820F4802008600846406820F4FE00E2
:1002900048604FF41F008860FFF7DAFF4FF00060FE
:1002A0002849086010BD10B5002100200022214B14
:1002B0005B6803F00C0121B1042906D0082928D17C
:1002C00007E0214B214C236027E01F4B1F4C23608C
:1002D00023E0184B5B6803F47010164B5B6803F463
:1002E0008032022303EB904022B9194B4343174C51
:1002F00023600DE00F4B5B6813F4003F04D0144BF8
:100300004343124C236003E00F4B43430F4C2360E5
:1003100003E00D4B0D4C236000BF00BF054B5B6835
:10032000C3F303130B4CE15C084B1B68CB40074C39
:10033000236010BD00100240002002400000FFF8C2
:10034000FFFFF6FE08ED00E000127A00000000203A
:1003500000093D0004000020094880470948004783
:10036000FEE7FEE7FEE7FEE7FEE7FEE7FEE7FEE765
:10037000FEE7FEE704480549054A064B70470000C2
:1003800059020008ED00000828080020280E00206F
:10039000280A0020280A002010B504464FF0E0206B
:1003A000006920F004004FF0E0210861E11704EB40
:1003B0005171C910264A11701046007800EB4001B7
:1003C000C1EBC0104FF6FF7101EAC000214908805F
:1003D00021A005F049FB10BD01461E4A12884A4380
:1003E0004FF0E0235A6100229A6101221A6100BF96
:1003F0004FF0E022106910F0010F02D010F4803F9E
:10040000F6D000224FF0E0231A619A61704701464E
:100410000F4A12784A434FF0E0235A6100229A6152
:1004200001221A6100BF4FF0E022106910F0010FA5
:1004300002D010F4803FF6D000224FF0E0231A6182
:100440009A617047002100E0491C8142FCD370474B
:100450001400002016000020D1D3CAB1BAAFCAFDE3
:10046000B3F5CABCBBAFCDEAB3C92E2E2E0D0A0020
:1004700010B52C48806940F004002A49886108467C
:10048000806940F0080088610846806940F00100FA
:100490008861254800684FF2F001884322490860CE
:1004A0000846006843F2300108431F4908601E48AF
:1004B0000C30006840F00A001B490C3108601B48F2
:1004C00000684FF20F018843184908600846006829
:1004D00043F20301084315490860144808300068D6
:1004E00040F009001149083108601148406840F0A7
:1004F00000700F494860C9140C48001F03F0E1F870
:100500004FF480710948001F03F0DBF80221064810
:1005100003F0D7F80821044803F0D3F805A005F04C
:10052000A3FA10BD00100240000C01400408014075
:1005300000000140D7B4CCAC4C4544B5C6B3F5CAB5
:10054000BCBBAFCDEAB3C92E2E2E0D0A00000000B1
:1005500010B52021F84803F098F8012800D110BD0B
:100560000020FCE738B50446032302226B21D0208B
:10057000009400F0D2FC38BD10B5012307226B2196
:10058000D02000F0FFFC10BD38B504460223042241
:100590001B21D020009400F0C0FC38BD38B50446C3
:1005A000022304221C21D020009400F0B6FC38BDA8
:1005B00010B50446234606226B21D02000F0E2FC51
:1005C00010BD10B5DD4B01227521D02000F039FCA3
:1005D000DA48007810BD10B5FFF7F3FF682801D1A5
:1005E000012010BD0020FCE710B50446234605227B
:1005F0006A21D02000F0C6FC10BD10B50446234689
:1006000001223721D02000F0BDFC10BD10B5FFF74E
:10061000E2FF10B1012808D103E0C9A005F024FAD7
:1006200003E0CDA005F020FA00BF00BF10BD10B55B
:100630000120FFF797FF0220FFF7A6FF0020FFF73A
:10064000ADFF0020FFF7B4FF0020FFF7CDFF012032
:10065000FFF7D3FF002307223721D02000F092FCC0
:10066000002306223721D02000F08CFC0123052234
:100670003721D02000F086FC012304223721D0202E
:1006800000F080FCFFF7C2FF10BD70B504460D46B8
:10069000164604F01F040EB144F020040DB144F0DE
:1006A000400422466D21D02000F02DFC70BD10B515
:1006B000044622466E21D02000F025FC10BD10B566
:1006C0009E4B01226F21D02000F0BBFB9B4800789D
:1006D00010BD10B5994B02221321D02000F0B1FBC0
:1006E000964840789549097840EA012000B210BD4B
:1006F00010B5924B02221521D02000F0A2FB8F48AA
:1007000040788E49097840EA012000B210BD10B54A
:100710008A4B02221721D02000F093FB87484078B3
:100720008649097840EA012000B210BD2DE9F05F4A
:1007300083460F4691461C46002211464846FFF765
:10074000A4FF2046FFF7B3FF002649E010257019EB
:10075000B84201DDB81BC5B2C4F58070A84201DA09
:100760006042C5B20BEB060A53462A466F21D020E1
:1007700000F09BFB0A9800B3002211464846FFF7A1
:1007800084FF2046FFF793FF794B2A466F21D02044
:1007900000F057FB4FF000080DE01AF8080074490C
:1007A00011F80810884202D00020BDE8F09F08F13F
:1007B000010000F0FF08A845EFDB701986B2601950
:1007C000C4B2BE420CDA1CB909F1010000F0FF0905
:1007D000002211464846FFF758FF2046FFF767FF03
:1007E000BE42B3DB0120E0E72DE9FE4F05460F4690
:1007F000002436E02046611C8CB215F800A020468B
:10080000611C8CB215F800B02046611C8CB22E5CC5
:10081000002E0FDD05EB0408002001215B46524647
:10082000CDE9001031464046FFF780FF0290A01945
:1008300084B211E02046611C8CB215F80090B9F129
:10084000010F07D132223821D02000F05CFB0120BB
:10085000029001E000200290029810B90020BDE84B
:10086000FE8FBC42C6DB0120F9E72DE9FC410446BE
:100870000D4616461F46DDF8208000203B463246D6
:100880002946CDE900802046FFF750FFBDE8FC81F6
:1008900070B504460D46002229462046FFF7A4FF06
:1008A00070BD10B5044622463821D02000F02BFB45
:1008B00010BD10B5044622461921D02000F023FBBC
:1008C00010BD38B50446032302221A21D02000941B
:1008D00000F023FB38BD38B50446032305221A2156
:1008E000D020009400F019FB38BD10B50446224614
:1008F0007021D02000F007FB10BD10B50446224641
:100900007121D02000F0FFFA10BD10B50446234637
:1009100000221146D02000F035FB10BD10B5044672
:10092000200A064908704C700B4602221321D02081
:1009300000F0BBFA10BD0000000C01408800002050
:10094000CEB4BCECB2E2B5BD4D5055363035302E8C
:100950002E2E0D0A00000000D2D1BCECB2E2B5BDD3
:100960004D5055363035302E2E2E0D0A0000000029
:100970001A01002010B50446200A884908704C70FE
:100980000B4602221521D02000F08FFA10BD10B5C1
:100990000446200A814908704C700B460222172138
:1009A000D02000F082FA10BD10B5012302226A2186
:1009B000D02000F0E7FA10BD10B5784B022272216A
:1009C000D02000F03EFA754840787449097840EA32
:1009D000012010BD10B5044622461F21D02000F092
:1009E00092FA10BD10B5044622462121D02000F015
:1009F0008AFA10BD10B5044622462021D02000F00E
:100A000082FA10BD10B5044622462221D02000F003
:100A10007AFA10BD2DE9F04781460E4690461C46F5
:100A2000002211464046FFF730FE2046FFF73FFE0A
:100A3000002525E01027E819B04201DD701BC7B280
:100A4000C4F58070B84201DA6042C7B209EB050311
:100A50003A466F21D02000F028FAE81985B2E01953
:100A6000C4B2B5420CDA1CB908F1010000F0FF086D
:100A7000002211464046FFF708FE2046FFF717FE0A
:100A8000B542D7DBBDE8F08770B504460D46234676
:100A90002A467421D02000F0D4F970BD10B53A2157
:100AA000D02000F0ABF910BD10B504462346072254
:100AB0006A21D02000F066FA10BD10B50021D020C8
:100AC00000F09CF9044604F0010010BD10B50021AF
:100AD000D02000F093F9044604F03F04204610BDF6
:100AE00038B50446E0B206231A4600210090D02013
:100AF00000F013FA38BD10B50121D02000F07EF9C6
:100B0000044604F03F04204610BD38B50446E0B268
:100B100006231A4601210090D02000F0FEF938BDCE
:100B200010B50221D02000F069F9044604F03F041A
:100B3000204610BD38B50446E0B206231A4602210D
:100B40000090D02000F0E9F938BD70B504460D469C
:100B5000032C00DD70BD04EB44002530C1B22A46F1
:100B6000D02000F0D0F900BFF4E710B501231A46F9
:100B70006A21D02000F006FA10BD10B504462346C5
:100B800006226A21D02000F0FDF910BD10B5012326
:100B900003226A21D02000F0F5F910BD8800002062
:100BA00008B50121082002F091FFC020ADF8000037
:100BB00010208DF8030003208DF802006946FA48E2
:100BC00002F0D2FCF9A004F04FFF08BD10B5F648C2
:100BD000006820F07040F44908600846006840F062
:100BE000405008600120F7490860F749C1F89801B2
:100BF0004FF00400FFF70BFC0020F24908604FF0B3
:100C00000400FFF704FC0020EF49C1F8980110BD73
:100C100010B5E548006820F07040E34908600846D8
:100C2000006840F0405008600020E8490860E6494C
:100C3000C1F89C014FF00400FFF7E9FB0120E349F4
:100C40000860E149C1F89C014FF00400FFF7DFFBA9
:100C500010BD10B50024D448006820F07040D2497F
:100C600008600846006840F0004008600120D5494F
:100C70000860FFF7CCFB0120D349C1F89801FFF7CA
:100C8000C6FB0AE0601CC4B2322C03DDFFF7C0FFD4
:100C9000012010BD0120FFF7BAFBCD4800680028F5
:100CA000F0D1CA49086000BFF3E710B50020C7497A
:100CB0000860BD48006820F07040BB4908600846E5
:100CC000006840F0405008604FF00000BE49C1F895
:100CD0009C014FF00200FFF79AFB0120BB4908601E
:100CE0004FF00200FFF793FB0020B749C1F89801CD
:100CF00010BD10B50020B5490860AB48006820F071
:100D00007040A94908600846006840F040500860FB
:100D10004FF00100AC49C1F89C014FF00200FFF711
:100D200076FB0120A94908604FF00200FFF76FFB36
:100D30000020A549C1F8980110BD70B504469A4835
:100D4000006820F07040984908600846006840F04C
:100D50004050086000209D49086005461AE0E009FF
:100D6000984908604FEA44604FEA10644FF002006F
:100D7000FFF74DFB01209449C1F898010220FFF7CD
:100D800046FB0020914908604FF00200FFF73FFB4F
:100D9000681CC5B2082DE2DB70BD70B505460024A5
:100DA0008148006820F070407F490860084600686C
:100DB00040F000400860002616E0002083490860EB
:100DC0004FF00200FFF723FB01207F49C1F8980193
:100DD0006006040E7E48006808B1601CC4B20220A0
:100DE000FFF715FB701CC6B2082EE6DB15B1FFF746
:100DF0005CFF01E0FFF77DFF204670BD70B5054642
:100E00000E460024FFF7E2FE2846FFF796FF641C1B
:100E1000FFF71FFF3046FFF790FF641CFFF719FF35
:100E2000FFF7D4FE691CC8B2FFF787FF641CFFF709
:100E300010FF0020FFF7B1FF0446FFF7E9FE204650
:100E400070BD2DE9F04706460F461546984600242A
:100E5000FFF7BCFE3046FFF770FFFFF7FAFE38469B
:100E6000FFF76BFFFFF7F5FEFFF7B0FE711CC8B28E
:100E7000FFF763FFFFF7EDFE00BF0FE0681EA04223
:100E800004D00120FFF789FF814603E00020FFF72F
:100E900084FF814608F80490601CC4B2AC42EDDBCC
:100EA000FFF7B6FE2046BDE8F0872DE9F041804609
:100EB0000D4616461F460024FFF788FE4046FFF702
:100EC0003CFFFFF7C6FE2846FFF737FFFFF7C1FEDE
:100ED00000BF06E0385DFFF730FFFFF7BAFE601C89
:100EE000C4B2B442F6DBFFF793FE0120BDE8F08107
:100EF00070B505460E46144631462846FFF77EFF7C
:100F00002070012070BD37B504460D4602AB0122AA
:100F100029462046FFF7C9FF3EBD2DE9F8430746A5
:100F2000884614461D46089E6A4641463846FFF7E5
:100F3000DFFF28B3601CFF2101FA00F0C4F10801B3
:100F40002944491EFF220A41104300F0FF09C5F160
:100F5000080006FA00F0C6B2C4F1070006419DF889
:100F6000000000EA090000909DF800003043009066
:100F70009DF8002041463846FFF7C5FFBDE8F883DD
:100F80000020FBE7F8B506460F4614461D466A46A4
:100F900039463046FFF7ACFFE5B10120A0409DF88F
:100FA000001008431CE00000000C0140494943D7F1
:100FB000DCCFDFB3F5CABCBBAFCDEAB3C92E2E2E52
:100FC0000D0A00009C81214200802142988121422B
:100FD0001C8121420120A0409DF8001021EA000060
:100FE000C0B200909DF8002039463046FFF78BFFD5
:100FF000F8BD000070B501218A4803F0C8FC002844
:101000006CD004F0CDF988480068401C864908601F
:101010008648006805F0F4FF04460022844B05F082
:10102000DDFD20D2804800680A280AD14FF4006113
:10103000804802F046FB4FF480717E4802F041FB8D
:1010400041E0794800681E283DD1002076490860BB
:101050004FF40061774802F032FB4FF4807175481D
:1010600002F02DFB2FE0704800680A2812D14FF4DF
:101070000061704802F025FB4FF480716D4802F06A
:1010800020FB02216C4802F01CFB08216A4802F098
:1010900018FB18E064480068142814D10020624945
:1010A00008604FF40061634802F009FB4FF480715F
:1010B000604802F004FB02215F4802F000FB0821B7
:1010C0005D4802F0FCFA584800681F2802DB002047
:1010D000554908600121534803F06AFC70BD2DE9B1
:1010E000F05F0121554803F052FC00B300F0ECFE24
:1010F000534908600846006805F01FFC8046514AC5
:10110000514B05F093FA064600224FF0804305F05C
:1011100067FC04464D4A4E4B05F062FC824605F0E2
:1011200097F9424908600121444803F041FCBDE8B9
:10113000F09F3EB505460C460121042002F0D3FC89
:10114000384802F02BFDA0B2ADF80400681E80B252
:10115000ADF800000020ADF80600ADF802006946C9
:10116000304802F0EFFD01212E4803F00DFC012272
:1011700011462C4803F05DF901212A4803F03EF99D
:1011800034A004F071FC3EBD3EB505460C4601217D
:10119000022002F0A8FC294802F000FDA0B2ADF840
:1011A0000400681E80B2ADF800000020ADF8060013
:1011B000ADF802006946214802F0C4FD01211F4834
:1011C00003F0E2FB012211461C4803F032F9012131
:1011D0001A4803F013F925A004F046FC3EBD08B5FB
:1011E0004FF4A06002F0F2F81D208DF800000220FC
:1011F0008DF8010000208DF8020001208DF8030019
:10120000684602F0E8F81E208DF8000001208DF8F5
:1012100001008DF802008DF80300684602F0DBF84B
:1012200008BD000000080040180000203800002021
:1012300000000E4000080140000C01400004004086
:1012400034000020FCA9F1D24D6210404625750201
:101250009A086B3FB6A8CAB1C6F734B3F5CABCBB8F
:10126000AFCDEAB3C92E2E2E0D0A0000B6A8CAB122
:10127000C6F733B3F5CABCBBAFCDEAB3C92E2E2E29
:101280000D0A000030B540F2E734A04200DB2046F2
:1012900040F2E734A14200DB214640F2E734A242AB
:1012A00000DB224640F2E734A34200DB234600285D
:1012B00000DC0020002900DC0021002A00DC0022E4
:1012C000002B00DC00234FF08045A8862987AA87E1
:1012D000384D2B8030BD10B588B00024012104208A
:1012E00002F0F4FB0121084602F0FDFB0F20ADF8EF
:1012F0001C0018208DF81F0002208DF81E0007A981
:101300002D4802F031F94FF0804002F047FC2B48A5
:1013100000682B49B0FBF1F0401E84B240F2E73088
:10132000ADF81400ADF810400020ADF81600ADF88F
:10133000120004A94FF0804002F004FD684603F05B
:1013400036F86020ADF800000120ADF80200002062
:10135000ADF80600ADF8080069464FF0804002F095
:101360002EFD69464FF0804002F06BFD69464FF05C
:10137000804002F0B3FD69464FF0804002F0F9FD75
:101380000821C80603F06AF90821C80603F06FF9BE
:101390000821C80603F078F90821C80603F07DF992
:1013A0000121880703F02AF806A004F05DFB08B0CD
:1013B00010BD000040000040000801400000002077
:1013C00000366E01B5E7BBFAB3F5CABCBBAFCDEAD8
:1013D000B3C92E2E2E0D0A0070B505460C461021FD
:1013E000974802F06EF9284600F0BEF906462046FE
:1013F00000F0BAF91021924802F061F9304670BD50
:1014000070B5044610218E4802F05BF9204600F0CA
:10141000ABF9002000F0A8F905461021884802F039
:101420004EF9284670BD2DE9F04107460D46164697
:101430001021834802F045F9384600F095F98046BE
:10144000002404E0285D00F08FF9601CC4B2B442AF
:10145000F8DB10217A4802F032F94046BDE8F0810D
:101460002DE9F04107460D4616461021744802F05A
:1014700028F9384600F078F98046002405E000207D
:1014800000F072F92855601CC4B2B442F7DB102199
:101490006B4802F014F94046BDE8F08170B504468F
:1014A0000D464FF48051664802F00BF92A4621465A
:1014B000A020FFF7B8FF4FF48051614802F0FFF819
:1014C00070BD1FB55FA103C9CDE90201002405224B
:1014D00002A93020FFF7A7FF052269461020FFF779
:1014E000BFFF00BF06E01DF80400C22800D003E0E3
:1014F000601CC4B2052CF6DB00BF052C05D153A03F
:1015000004F0B2FA012004B010BD56A004F0ACFA09
:101510000020F8E710B500F0C5F8FFF7D2FF10BDC6
:1015200010B54FF48051464802F0CBF8FF21E2207D
:10153000FFF752FF052251492A20FFF774FF0121CE
:101540002120FFF749FF01212220FFF745FF282135
:101550002520FFF741FF20213120FFF73DFF0F211C
:101560002620FFF739FF0F212020FFF735FF4FF42A
:101570008051334802F0A3F841A004F075FA10BD81
:1015800010B54FF480512E4802F09BF8FF21E12066
:10159000FFF722FF052241493020FFF744FF0522D3
:1015A00036492A20FFF73FFF01212120FFF714FFD2
:1015B00001212220FFF710FF1A212420FFF70CFF42
:1015C00028212520FFF708FF0F212620FFF704FF21
:1015D0000E212020FFF700FF4FF48051184802F041
:1015E0006EF810BD10B50720FFF70AFF044614F08F
:1015F000400F06D020222A496120FFF731FF03F077
:1016000083FF21462720FFF7E7FE10BD70B5044693
:101610000720FFF7F5FE054629462720FFF7DCFEE9
:1016200015F0400F0AD0202221466120FFF7FBFE73
:10163000FF21E220FFF7D0FE002070BD0120FCE773
:1016400000080140C2C2C2C2C2000000B3F5CABC59
:10165000BBAF4E524632344C3031B3C9B9A62E2EF0
:101660002E0D0A00B3F5CABCBBAF4E524632344C05
:101670003031B3F6B4ED2E2E2E0D0A0025000020D9
:101680004E524632344C3031C9E8CEAABDD3CAD509
:10169000C4A3CABD2E2E2E0D0A000000200000207B
:1016A0003A01002000B587B00121042002F00EFAB3
:1016B0000121082002F00AFA0121080302F006FACB
:1016C000E020ADF8040001208DF8060018208DF808
:1016D000070001A9314801F047FF4FF48050ADF8F1
:1016E000040001208DF8060010208DF8070001A9E4
:1016F0002A4801F039FF1020ADF8040001208DF8D0
:10170000060010208DF8070001A9244801F02CFFE5
:101710001021224801F0D3FF0020ADF808004FF45B
:101720008270ADF80A000020ADF80C00ADF80E0094
:10173000ADF810004FF40070ADF812001020ADF8B5
:1017400014000020ADF816000720ADF8180002A91B
:10175000134803F05BFB0121114803F0FCFB11A0CF
:1017600004F082F907B000BD10B5044600BF0221A5
:101770000B4803F074FC0028F9D02146084803F018
:101780001BFC00BF0121064803F069FC0028F9D0CA
:10179000034803F013FCC0B210BD00000008014074
:1017A00000300140535049D7DCCFDFB3F5CABCBB92
:1017B000AFCDEAB3C92E2E2E0D0A000010B58B480E
:1017C0008B4948608B4848608BA004F04DF910BDF0
:1017D0008748006940F08000854908617047844867
:1017E000C16811F0010F01D00120704711F0040F02
:1017F00001D00220F9E711F0100F01D00320F4E727
:101800000020F2E770B5044600BFFFF7E8FF054689
:10181000012D00D006E00120FEF7F9FD601E84B224
:10182000002CF2D100BF04B9FF25284670BD70B569
:101830000546002445F6FF70FFF7E4FF0446C4B9EF
:101840006B48006940F0020069490861084645613B
:10185000006940F04000086145F6FF70FFF7D2FFD5
:101860000446012C05D06248006920F0020060495E
:101870000861204670BD70B505460E46FF20FFF793
:10188000C1FF044694B95A48006940F00100584924
:1018900008612E80FF20FFF7B5FF0446012C05D01C
:1018A0005348006920F0010051490861204670BD8D
:1018B0000146088870472DE9F04105460E46174657
:1018C000002407E036F814102846FFF7D4FFAD1CBB
:1018D000601C84B2BC42F5DBBDE8F08130B5034644
:1018E0000C461546002207E01846FFF7E1FF24F8F2
:1018F00012009B1C501C82B2AA42F5DB30BD2DE9C0
:10190000F05F80468A461746B8F1006F02D3404820
:10191000804501D3BDE8F09FFFF750FFA8F1006BB1
:101920004FEA9B25CBF34809C9F50074A74200DCB8
:101930003C464DE04FF0006101EB85208A143549AB
:10194000FFF7CCFF00260BE009EB0600314931F828
:101950001000A0F57F41FF3900D003E0701C86B273
:10196000A642F1DB00BFA6421BDA4FF0006101EB9B
:101970008520FFF75CFF002608E03AF8160006EB2A
:101980000901244A22F81100701C86B2A642F4DB39
:101990004FF0006101EB85208A141E49FFF78BFF91
:1019A00004E0224651464046FFF785FFA74200D19A
:1019B0000FE06D1C4FF000090AEB440AA044381BED
:1019C00087B2B7F5007F02DD4FF4007400E03C46BB
:1019D000B0E700BFFFF7FCFE00BF9BE713B504466E
:1019E000012201A92046FFF78AFF1CBD230167459C
:1019F00000200240AB89EFCDC4DAB2BF464C415360
:101A000048BDE2CBF8CDEAB3C92E2E2E0D0A000058
:101A1000000001087A010020014600BF704700BFA6
:101A2000884A128812F0400FFAD0C2B2854B1B1DB3
:101A30001A80704708B525208DF8000000208DF829
:101A400001008DF8020001208DF80300684601F0C6
:101A5000C2FC08BD2DE9F05F05460E46300105F0D9
:101A600073FC8146784905FB01F005F06DFC824668
:101A7000494605F053FB0746384605F02DFC84B275
:101A8000204605F061FC8346394605F03DFD82465F
:101A90004FF0834105F06CFC814605F01DFC80464B
:101AA0004FF6FF7000EA041404EB080084B26748A4
:101AB000806940F00400654988610846806940F407
:101AC000804088616248006820F47F606049086057
:101AD0000846006840F40B6008605C48C06840F449
:101AE00080405A49C8600846C06820F48040C860F9
:101AF000544808300480001D008842F20C0108435D
:101B000050490C3108800846008840F480700880F5
:101B10000846008840F020000880FFF78BFF002077
:101B20004C49088048801F2088804B4888600020EE
:101B30004A49088048801F20888049488860294693
:101B400048A003F091FF31464CA003F08DFFBDE8A3
:101B5000F09F028883881A40836899540288521C37
:101B60000280704710B5044621463A48FFF7F1FF5E
:101B7000012240F22771334802F0F9FF10BD10B581
:101B8000044621463348FFF7E4FF012240F2277163
:101B90002C4802F0ECFF204610BD01464A888B8895
:101BA0001A408B68985C4A88521C4A8070470146EC
:101BB00008884A88801A8A881040704710B540F219
:101BC0002771204803F0B8F890B12248FFF7E5FFED
:101BD000044621461B4803F02BF81E48FFF7E7FF99
:101BE00070BB002240F22771164802F0C0FF27E0C8
:101BF00040F22551134803F09FF808B3114803F051
:101C00001BF825490870084601781448FFF7A1FF22
:101C10001248FFF7CCFF18B945210A4803F008F82D
:101C20000E48FFF7C4FF0D498988884203D1462139
:101C3000044802F0FDFF40F22551024803F0A6F8E7
:101C400010BD00000038014040420F00001002406B
:101C5000040801407C050020B40500208805002010
:101C600094050020CFB5CDB3CAB1D6D3C6B5C2CA8C
:101C7000A3BA25644D487A200D0A0000B4AEBFDA3D
:101C800031B3F5CABCBBAFB2A8CCD8C2CAA3BA257F
:101C900064200D0A000000003000002010B58D48BF
:101CA000806940F008008B4988618B48006820F00B
:101CB0000F00894908608748806940F400708549B1
:101CC00088610846C06840F40070C8600846C06873
:101CD00020F40070C8600846406820F44040486026
:101CE0000846406840F4004048607C4800687C49F1
:101CF00008407A490860084600680860084600689D
:101D000020F480700860081D006820F00200091DA2
:101D100008600846006820F46020086008460068F3
:101D200040F4602008600846006840F480100860B5
:101D30000846006820F4006008600846006840F427
:101D40000000086065482830006820F4700063498E
:101D50002831086008460068002008605F480C30A1
:101D6000006820F038005D490C31086008460068C2
:101D700040F038000860081F006820F4E010091FD8
:101D800008600846006840F4E0100860081F00681A
:101D900040F00100091F08600846006840F0080094
:101DA000086000BF4D48001D006810F0080FF9D111
:101DB0004A48001D006840F004004849091D0860B9
:101DC00000BF4648001D006810F0040FF9D145A07F
:101DD00003F04AFE10BD014640483030006820F054
:101DE0001F003E4A30321060104600680843106001
:101DF0003A48001D006840F48000384A121D106007
:101E000000BF3648001F006810F0020FF9D03348B9
:101E10004830006880B2704770B506460B46002413
:101E2000002505E03046FFF7D6FF0444681CC5B224
:101E30009D42F7DBB4FBF3F080B270BD2DE9FE4F9D
:101E40000024A14608E01020FFF7C5FF204484B21B
:101E500009F1010000F0FF09B9F1140FF3DB1420C0
:101E600094FBF0F084B2204605F06EFA824605F04D
:101E7000C7F807464FF06632204B04F0B1FD054627
:101E800004F0E6FA0290029805F0BAF805461C4AFA
:101E90001C4B04F0D9FE07461B4A1C4B04F0C6FB42
:101EA00000221B4BCDE9000104F004FB824604F044
:101EB000CFFA02901749029805F05AFA0290029858
:101EC00005F0EEF9BDE8FE8F00B505210820FFF70B
:101ED000A3FF00BD00100240000C0140042401409B
:101EE000FFFFF000B5E7D1B9BCE0B2E24144B3F581
:101EF000CABCCDEAB3C92E2E2E0D0A0066664A3F33
:101F0000E17A14AE47E1F63F22FDF675E09C713FA1
:101F1000000039400000204102468A4201DA1046A2
:101F200070470846FCE72DE9F047A6B0002592A0CF
:101F300003F09AFD98A003F097FDFEF71DFB3220F9
:101F4000FEF74AFA99A003F08FFD0020FEF730FB60
:101F50009BA003F089FDA1A003F086FD012211469C
:101F60001020FEF792FBA3A003F07EFD0620FEF7F3
:101F70009EFBA7A003F078FDFEF7A1FBAAA003F04B
:101F800073FD002211461046FEF77FFBAAA003F066
:101F90006BFDFEF792FDAEA003F066FDFEF796FD29
:101FA0000746FEF7A8FD8046FEF7BAFD8146AEA0C3
:101FB00003F05AFD7F210020FEF7C7FDB1A003F01A
:101FC00053FD0020FEF710FB0120FEF716FBB3A027
:101FD00003F04AFD68210020FEF7B7FDB6A003F02C
:101FE00043FDFEF7C2FD1420FEF7F6F9B9A003F099
:101FF0003BFD012000231A4640F289710090BD4844
:10200000FEF733FC002877D0BBA003F02DFDC1A064
:1020100003F02AFDC5A003F027FDC021CD48FEF73F
:1020200037FC002869D0CCA003F01EFDD1A003F03E
:102030001BFD0320FEF796FAD5A003F015FD122034
:10204000FEF72FFCD9A003F00FFD0420FEF731FCB2
:10205000DDA003F009FD0120FEF73DFCE3A003F045
:1020600003FD0320FEF72DFCE6A003F0FDFC03209A
:10207000FEF78AFAEDA003F0F7FC0320FEF735FC2B
:102080000020FEF73AFCEFA003F0EEFC0020FEF784
:102090003CFCF1A003F0E8FC3846FEF721FD404689
:1020A000FEF733FD4846FEF745FDF3A003F0DCFCE8
:1020B000002407E0F848405D22A90855601CC4B21E
:1020C000681C85B2042CF5DB9DF88A00C01CA04278
:1020D000F0DC00200121CDE900109DF889309DF849
:1020E00088209DF88A100DF18B00FEF71FFBEBA0F6
:1020F00003F0BAFC002409E044E33CE3E648405D19
:1021000022A90855601CC4B2681C85B2042CF5DBFA
:102110009DF88A00C01CA042F0DC002000900190D5
:102120009DF889309DF888209DF88A100DF18B006C
:10213000FEF7FCFAE1A003F097FCFEF735FCE4A003
:1021400003F092FCFEF738FCC6B2314602A8FEF757
:102150009BFCE5A003F088FC0220FEF73BFCE9A015
:1021600003F082FC9C20FEF73DFCEEA003F07CFC1B
:102170005020FEF73FFCE7E10D0A3D3D3D3D3D3D72
:102180003DC5E4D6C3444D50D2FDC7E63D3D3D3D7F
:102190003D3D3D3D3D0D0A00B8B4CEBB4D505536DA
:1021A0003035302E2E2E0D0A00000000BDFBD6B9B2
:1021B000D0DDC3DFC4A3CABD2E2E2E0D0A00000041
:1021C0000D0AB6C1C8A14D505536303530D3B2BC1A
:1021D000FEB0E6B1BE2E2E2E0D0A0000D5FDD4DADB
:1021E000D1A1D4F1D3C3BBA7C4DAB4E6BFE92E2E84
:1021F0002E0D0A00D5FDD4DAD1A1D4F1D3C3BBA7EB
:10220000C4DAB4E6D7D6BDDA2E2E2E0D0A000000B1
:10221000D5FDD4DABCECB2E9D3B2BCFEB0E6B1BEB7
:102220002E2E2E0D0A000000B8B4CEBBC4DAB4E6E0
:10223000BFE92E2E2E0D0A00B6C1C8A14F5450BFC3
:10224000E9D3D0D0A7B1EAD6BE2E2E2E0D0A0000BB
:10225000B6C1C8A1BCD3CBD9B6C8C6ABD2C6D6B559
:102260002E2E2E0D0A000000C9E8D6C3B4D3C6F73F
:10227000BCFEB5D8D6B7CEAA307837462E2E2E0D56
:102280000A000000BDFBD6B9494943D6F7C6F7BCE2
:10229000FEC4A3CABD2E2E2E0D0A0000C9E8D6C367
:1022A000B4D3C6F7BCFEB5D8D6B7CEAA3078363888
:1022B0002E2E2E0D0A000000B8B4CEBB494943D6DD
:1022C000F7C6F7BCFEBFD8D6C6C8A82E2E2E0D0A5C
:1022D00000000000D5FDD4DAD0B4C8EB444D50B4B2
:1022E000FAC2EBB6CEB5BD4D505536303530200D67
:1022F0000A000000F6760008444D50B4FAC2EBD054
:10230000B4C8EBD0A3D1E9B3C9B9A62E2E2E0D0ABD
:1023100000000000C5E4D6C3444D50BACDD3D0B9B7
:10232000D8C9E8D6C32E2E2E0D0A0000D5FDD4DA6A
:10233000D0B4C8EB444D50C5E4D6C3B4FAC2EBB533
:10234000BD4D505536303530C4DAB4E62E2E2E0D44
:102350000A0000007F7E0008444D50C5E4D6C3B497
:10236000FAC2EBD0B4C8EBD0A3D1E9B3C9B9A60D7A
:102370000A000000C9E8D6C35AD6E1BDC7CBD9B61A
:10238000C8CAB1D6D3D4B42E2E2E0D0A0000000038
:10239000CAB9C4DC444D50D2FDC7E6BACD46494661
:1023A0004FD6D0B6CF2E2E2E0D0A0000C9E8D6C3C8
:1023B000444D50B2C9D1F9C2CACEAA323030487A9F
:1023C0002E2E2E0D0A000000C9E8D6C3CDE2B2BF02
:1023D000CDACB2BDD6A1B5BD54454D505F4F55549F
:1023E0005F4C5B305D2E2E2E0D0A0000C9E8D6C36F
:1023F000444C5046B4F8BFEDCEAA3432487A2E2E63
:102400002E0D0A00C9E8D6C3BDC7CBD9B6C8BEAB2E
:10241000B6C8CEAA202B2F2D203230303020646554
:10242000672F7365632E2E2E0D0A0000C9E8D6C3F0
:10243000444D50C5E4D6C3D7D6BDDA2E2E2E0D0A94
:1024400000000000C7E5B3FE4F5450BFE9B1EAD623
:10245000BE2E2E2E0D0A0000C9E8D6C3582F592FC4
:102460005AD6E1BDC7CBD9B6C8CEAACFC8C7B0D659
:10247000B52E2E2E0D0A0000D0B4C8EBD7EEBAF35D
:10248000C4DAB4E6B8FAD0C2B5BD20312F37202E59
:102490002E2E0D0A000000003F7F0008D0B4C8EBCC
:1024A000D7EEBAF3C4DAB4E6B8FAD0C2B5BD20327A
:1024B0002F37202E2E2E0D0A00000000D5FDD4DA75
:1024C000B8B4CEBB4649464F2E2E2E0D0A00000052
:1024D000D5FDD4DAB6C1C8A14649464FBCC6CAFD2F
:1024E0002E2E2E0D0A000000D5FDD4DAC9E8D6C381
:1024F000D4CBB6AFE3D0D6B5CEAA322E2E2E0D0A4F
:1025000000000000D5FDD4DAC9E8D6C330D4CBB67C
:10251000AFBCECB2E2E3D0D6B5CEAA3135362E2E22
:102520002E0D0A00D5FDD4DAC9E8D6C3D4CBB6AF98
:10253000BCECB2E2B3D6D0F8CAB1BCE4CEAA383013
:102540002E2E2E0D0A000000F0A003F08DFA0020C0
:10255000FEF758FAAFF2980003F086FAFEF724FA75
:10256000F3A003F081FA0120FEF707FBF5A003F0CA
:102570007BFA0120FEF798FAF7A003F075FAFEF750
:1025800005FBF9A003F070FA002407E0FE48405D67
:1025900022A90855601CC4B2681C85B2042CF5DB66
:1025A0009DF88A00C01CA042F0DC00200090019041
:1025B0009DF889309DF888209DF88A100DF18B00D8
:1025C000FEF7B4F8F1A003F04FFA002407E0EE485C
:1025D000405D22A90855601CC4B2681C85B2042C59
:1025E000F5DB9DF88A00C01CA042F0DC00200090C2
:1025F00001909DF889309DF888209DF88A100DF192
:102600008B00FEF793F8E9A003F02EFA002407E010
:10261000DD48405D22A90855601CC4B2681C85B223
:10262000042CF5DB9DF88A00C01CA042F0DC0020E1
:10263000009001909DF889309DF888209DF88A10BF
:102640000DF18B00FEF772F8E0A003F00DFA00BF69
:10265000FEF7B2F9C0B206460328F9DBE1A003F0A9
:1026600003FA80213046FFF757FC8246514602A804
:10267000FEF70AFADFA003F0F7F9FEF70FFAE2A07F
:1026800003F0F2F9002407E0BF48405D22A9085595
:10269000601CC4B2681C85B2042CF5DB9DF88A006E
:1026A000C01CA042F0DC9DF889309DF888209DF880
:1026B0008A100DF18B00FEF7ADF9C4A003F0D4F938
:1026C00000BFFEF779F9C0B206460328F9DBD6A0B1
:1026D00003F0CAF980213046FFF71EFC82465146BE
:1026E00002A8FEF7D1F9D5A003F0BEF9FEF7D6F99E
:1026F000D8A003F0B9F9002407E0A348405D22A95F
:102700000855601CC4B2681C85B2042CF5DB9DF82A
:102710008A00C01CA042F0DC0020009001909DF8CF
:1027200089309DF888209DF88A100DF18B00FDF707
:10273000FDFFD0A003F098F9D4A003F095F9002094
:10274000FEF7B2F9D6A003F08FF92A20DB49088002
:10275000DBA003F089F9FEF727F9FEF79FF9E0A067
:1027600003F082F90120FEF79FF9E2A003F07CF963
:10277000FEF794F90BE0E9A003F076F9022026B009
:10278000BDE8F087ECA003F06FF90120F7E7EFA0B8
:1027900003F06AF90020F2E72DE9F041044600BF9A
:1027A00024F00040C0F1FF40C00F10B10020BDE890
:1027B000F081204604F024FC05460022EC4B04F096
:1027C0000DFA01D8EB48F2E7204604F019FC054663
:1027D0000022E94B04F0C8F801D8E848E7E72046B2
:1027E00004F00EFC054603F0FBFA074603F030FE4A
:1027F000DDE72DE9F04704464FF07C51204604F018
:10280000B7FD814625462E46DD48A0EB66063546D7
:102810002946484604F0ACFD8246294604F0A8FD4E
:1028200080464FF07F5104F06FFE0746294604F0C2
:102830009FFD05462846BDE8F0872DE9F04F8FB093
:10284000D049B1F9100004F067FD0446CE4904F008
:1028500065FCCC498863B1F9140004F05DFD0446C1
:10286000C94904F05BFCC749C863B1F9180004F01A
:1028700053FD0446C44904F051FCC2490864B1F94F
:102880001C0004F049FD05464FF08C4104F046FC65
:102890000446BE4904F06CFDBA494864B1F9200011
:1028A00004F03AFD05464FF08C4104F037FC044635
:1028B000B64904F05DFDB3498864B1F9240004F021
:1028C0002BFD05464FF08C4104F028FC0446AF492F
:1028D00004F04EFDAB49C864B1F9000004F01CFDE2
:1028E0000B90A849B1F9040004F016FD0C90A5491D
:1028F000B1F9080004F010FD0D90A249B1F90C00E7
:1029000004F00AFD0E900E990E9841E1D5FDD4DA3F
:10291000C9E8D6C330D4CBB6AFBCECB2E2B3D6D0A4
:10292000F8CAB1BCE4CEAA302E2E2E0D0A0000004B
:10293000D5FDD4DACAB9C4DC4649464F2E2E2E0D39
:102940000A000000D5FDD4DACAB9C4DC444D502ECB
:102950002E2E0D0A00000000B8B4CEBB444D5044EA
:102960004D502E2E2E0D0A00D0B4C8EBD7EEBAF380
:10297000C4DAB4E6B8FAD0C2B5BD20332F37202E62
:102980002E2E2E2E2E0D0A003F7F0008D0B4C8EB4D
:10299000D7EEBAF3C4DAB4E6B8FAD0C2B5BD203483
:1029A0002F37202E2E2E2E2E2E0D0A00D0B4C8EB3F
:1029B000D7EEBAF3C4DAB4E6B8FAD0C2B5BD203562
:1029C0002F37202E2E2E2E2E2E0D0A00B5C8B4FD28
:1029D0004649464FBCC6CAFD3E3D322E2E2E0D0A3C
:1029E00000000000B8B4CEBB204649464F2E2E2E24
:1029F0000D0A0000B6C1C8A1D6D0B6CFD7B4CCACB2
:102A00002E2E2E0D0A000000D0B4C8EBD7EEBAF37C
:102A1000C4DAB4E6B8FAD0C2B5BD20362F37202EBE
:102A20002E2E2E2E2E0D0A00D5FDD4DAB6C1C8A149
:102A30004649464F2E2E2E0D0A000000D5FDD4DA51
:102A4000B6C1C8A1D6D0B6CFD7B4CCAC2E2E2E0DE1
:102A50000A000000D0B4C8EBD7EEBAF3C4DAB4E68B
:102A6000B8FAD0C2B5BD20372F37202E2E2E2E2EED
:102A70002E0D0A00444D50C9E8D6C3D2BBC7D0D5ED
:102A8000FDB3A32E2E2E0D0A00000000B9D8B1D53B
:102A9000444D50D2FDC7E62E2E2E0D0A0000000038
:102AA000C9E8D6C3C4DAB2BF3432D7D6BDDABBBAAE
:102AB000B3E5B0FC2E2E2E0D0A0000003C000020D5
:102AC000D7EEBAF3D2BBB4CEB8B4CEBB4649464F6C
:102AD000BACDD6D0B6CFD7B4CCAC2E2E2E0D0A00A0
:102AE000B4F2BFAA444D50D2FDC7E62E2E2E0D0AD9
:102AF00000000000444D50D2FDC7E6D7BCB1B8BEBF
:102B0000CDD0F72CB5C8B4FDB5DAD2BBB4CECAFD72
:102B1000BEDDD6D0B6CF2E2E2E0D0A00444D50D29B
:102B2000FDC7E6C5E4D6C3D0A3D1E9B3F6B4ED2E14
:102B30002E2E0D0A00000000444D50B4FAC2EBD016
:102B4000A3D1E9B3F6B4ED2E0D0A00003D3D3D3DA5
:102B50003D3D444D50D2FDC7E6B3F5CABCBBAFCD39
:102B6000EAB3C93D3D3D3D3D3D3D3D0D0A00000000
:102B70000000F03FDA0FC93F0000F0BFDA0FC9BF15
:102B8000DF59375FE005002033338341EC511441B6
:102B900004F0EEFB07460D990D9804F0E9FB804622
:102BA0000C990C9804F0E4FB81460B990B9804F007
:102BB000DFFB8246494604F04FFA0646414604F0E0
:102BC0004BFA0446394604F047FA0546FFF711FE72
:102BD0000A900B980A9904F0CBFB0B900C980A9979
:102BE00004F0C6FB0C900D980A9904F0C1FB0D90FF
:102BF0000E980A9904F0BCFB0E900D990D9804F004
:102C0000B7FB02900C990C9804F0B2FB019002996A
:102C100004F022FA039004F0F3F9804600224FF00A
:102C2000804303F0DDFE06460022814B04F00CF8E1
:102C300082468B460E990D9804F09AFB81460C99BA
:102C40000B9804F095FB4946039004F005FA804682
:102C500004F0D6F9064600224FF0804303F0C0FE90
:102C6000044652465B4603F00BFB0022714BCDE954
:102C7000040103F0B5FE4FF080426F4BCDE9060131
:102C800003F0D4FCCDE9080103F0E2FB6B490863D3
:102C90000C990E9804F06CFB09900D990B9804F0B8
:102CA00067FB0890099904F039FC834604F0A8F901
:102CB000074600224FF0804303F092FE054603F0E2
:102CC000C7FB8246FFF768FD81465D4904F050FB73
:102CD00004465C4904F022FA5849C8620E990E98DD
:102CE00004F046FB02900D990D9804F041FB019011
:102CF000029904F0B1F9039004F082F980460022B1
:102D00004FF0804303F06CFE06460022484B03F070
:102D10009BFFCDE906010D990C9804F029FB814633
:102D20000E990B9804F024FB4946039004F094F9A3
:102D3000804604F065F9064600224FF0804303F018
:102D40004FFECDE90401DDE9062303F099FA81F095
:102D500000410022374BCDE9080103F041FE044653
:102D60004FF08042344B03F061FC824603F070FB6D
:102D7000324948630FB0BDE8F08F70B52F4D00BFEA
:102D8000FDF7E6FB28B930480088304909888842B9
:102D9000F6DBFDF783FE2E490870FDF70DFE2A498C
:102DA00008802B48007810F0100F04D108460088E6
:102DB000B0F5806F02D1FDF7F7FD2CE024480078D4
:102DC00010F0020F27D003E0FDF7F6FD1E49088042
:102DD0001D4800881D4909888842F5DB1B48017899
:102DE0001C48FDF751FE1848008818490988401A08
:102DF00015490880002408E01649601C085C285525
:102E00000846015D601C2954A41C104800888442B7
:102E1000F2DBFFF712FD70BD0848406B0E49886079
:102E20000648C06A48600548006B086070470000AB
:102E30000000F03F00806640FB210940E0050020D3
:102E400000003443DA0F4940400000203C000020DD
:102E50003E00002030060020D405002010B51048A8
:102E6000806940F008000E4988610E48006820F42F
:102E700070600C4908600846006840F440700860C3
:102E800008480C30006840F0040006490C31086026
:102E90000421044800F015FC03A002F0E5FD10BD7C
:102EA00000100240000C0140C0B6D1C0B5E7D4B458
:102EB000B3F5CABCBBAFB9D8B1D5CDEAB3C92E2ED4
:102EC0002E0D0A00092000F0FDF84FF4E1312E48E4
:102ED0000078FEF7BFFD00F091F8FEF76FFCFDF7FC
:102EE000C7FA29480078FDF757FAFFF7B7FFFEF752
:102EF000F2F9FEF7D3FEFDF753FEFFF714F802F0E8
:102F000067FA02F0A5FA02F075FAFEF703FBFEF786
:102F100007FB00F01FF94FF47A711B480078FEF7A9
:102F200033F94FF47A7118480078FEF702F929E076
:102F30002046641C15490A5C214615A002F094FD48
:102F400019484088184A928800EA020117A002F046
:102F50008BFD15480088144A928800EA020117A0E8
:102F600002F082FD1048FEF722FE0546294617A012
:102F700002F07AFD0C488088A04203DA002417A0F2
:102F800002F072FDD4E7000042000020940500200A
:102F90000D0ACAD5B5BDCAFDBEDD5B25645D203D09
:102FA0002025640D0A00000088050020B6C1D6B8AF
:102FB000D5EB203D2025640D0A000000D0B4D6B822
:102FC000D5EB203D2025640D0A000000BFC9D3C306
:102FD0002564D7D6BDDA0D0A000000000D0A0000F6
:102FE000704700BFFEE700BFFEE700BFFEE700BF7F
:102FF000FEE77047704770477047000010B5FEF756
:10300000EEF8FEF717FD10BD0020D0490861C8603A
:103010001420486100208861C8610846006840F0BB
:103020000100086008464068C9490840C74948602F
:1030300008460068C7490840C44908600846006857
:1030400020F4802008600846406820F4FE004860B4
:103050000020886070470146BC48006840F00100CD
:10306000BA4A10601046006810601046006840F4CC
:103070008020106000BFB548006810F0020FFAD041
:10308000B2484268881E42EA8040B04A506010460A
:10309000406850601046006840F08070106000BFCB
:1030A000AA48006810F0007FFAD0A848406840F0B5
:1030B0000200A64A50608806000EA74A107010460B
:1030C0000078704700B502460023FFF79DFF9F4838
:1030D000006840F480309D49086000BF9B4800684C
:1030E000400CFBD04FF4806098494860901EC2B2FB
:1030F0000846406840EA824048600846406840F41C
:10310000803048609548006840F03200934908607C
:103110008E48006840F080708C49086000BF8B4882
:103120000068400EFBD08948406840F002008749A3
:10313000486005E085484068C0F3870303F0030357
:10314000022BF7D1901CC006000E83490870084678
:10315000007800BD10B52EE0FEF744FA80A002F022
:1031600083FC4FF40061834800F0A9FA4FF48071AA
:10317000804800F0A4FA02217F4800F0A0FA08215C
:103180007D4800F09CFA7D48FDF75CF94FF4006142
:10319000784800F096FA4FF48071764800F091FA82
:1031A0000221754800F08DFA0821734800F089FA71
:1031B0007348FDF747F97348807FA528CCD172A0EA
:1031C00002F052FC002455E04FF40061694800F021
:1031D00076FA4FF48071674800F073FA022166486E
:1031E00000F06FFA0821644800F06BFA6348FDF7BD
:1031F00029F94FF400615F4800F063FA4FF48071E1
:103200005C4800F05CFA02215B4800F05AFA0821A1
:10321000594800F056FA5948FDF714F94FF4006187
:10322000544800F04EFA4FF48071524800F049FAC9
:103230000221514800F043FA08214F4800F041FABA
:103240004E48FDF7FFF84FF400614A4800F039FAA4
:103250004FF48071474800F034FA0221464800F0EC
:1032600030FA0821444800F02AFA4448FDF7EAF809
:10327000601CC4B2042CA7DB2FE0FEF7B3F948A012
:1032800002F0F2FB4FF400613A4800F018FA4FF4F4
:103290008071384800F013FA0221374800F00FFA25
:1032A0000821354800F00BFA6420FDF7CBF84FF405
:1032B0000061304800F005FA4FF480712D4800F0AD
:1032C00000FA02212C4800F0FCF908212A4800F0FD
:1032D000F8F942F22830FDF7B5F82A48C07EA52853
:1032E000CBD100242BE04FF40061224800F0E7F935
:1032F0004FF480711F4800F0E2F902211E4800F0EF
:10330000DEF908211C4800F0DAF91C48FDF79AF8AC
:103310004FF40061174800F0D4F94FF4807115485C
:1033200000F0CFF90221144800F0CBF9082112482F
:1033300000F0C7F91148FDF785F8601CC4B2032CF2
:10334000D1DB1BA002F090FB10BD0000001002407A
:103350000000FFF8FFFFF6FE4200002000200240C0
:10336000B5C8B4FDD2A3BFD8BDD3C8EB2E2E2E0D49
:103370000A00000000080140000C0140A0BB0D0045
:10338000E03229003A010020D2D1BCECB2E2B5BD56
:10339000D2A3BFD8D0C5BAC52E2E2E0D0A0000006C
:1033A000B5C8B4FDBDE2CBF82E2E2E0D0A000000EC
:1033B000BDE2CBF8B3C9B9A62CBDF8C8EBB7C9D0EC
:1033C000D0C4A3CABD2E2E2E0D0A000031490143E0
:1033D000314A1160704770B5002100230F22C47874
:1033E0000CB32D4C246804F4E064C4F5E064210AB5
:1033F000C1F10403CA40447804FA03F1847814400C
:1034000021430901254C0678A155047804F01F05D5
:103410000124AC4005786D114FF0E02606EB8505E0
:10342000C5F8004109E0047804F01F050124AC4010
:103430001B4D0678761145F8264070BD194A0A40A2
:103440000243154B1B1F1A60704739B1124A121DF7
:1034500012680243104B1B1D1A6006E00E4A121D33
:10346000126882430C4B1B1D1A607047042808D158
:103470004FF0E021096941F004014FF0E0221161B1
:1034800007E04FF0E021096921F004014FF0E0224C
:10349000116170470000FA050CED00E000E400E067
:1034A00080E100E080FFFF1F10B50446CA48844257
:1034B00008D10121042000F023FB0021042000F0AA
:1034C0001FFB46E0C548844208D10121082000F0D6
:1034D00017FB0021082000F013FB3AE0C0488442AB
:1034E00008D10121102000F00BFB0021102000F07A
:1034F00007FB2EE0BB48844208D10121202000F0C8
:10350000FFFA0021202000F0FBFA22E0B6488442B6
:1035100008D10121402000F0F3FA0021402000F002
:10352000EFFA16E0B148844208D10121802000F072
:10353000E7FA0021802000F0E3FA0AE0AC48844278
:1035400007D10121801500F0DBFA0021A01500F061
:10355000D7FA10BD10B50121084600F0D1FA0021BC
:10356000012000F0CDFA10BD2DE9F0410246002502
:103570000026002000230024002791F803C00CF04F
:103580000F0591F803C01CF0100F03D091F802C092
:103590004CEA050591F800C0BCF1000F31D0146869
:1035A00000202BE04FF0010C0CFA00F3B1F800C042
:1035B0000CEA03069E4220D183004FF00F0C0CFA58
:1035C00003F7BC4305FA03FC4CEA040491F803C07A
:1035D000BCF1280F06D14FF0010C0CFA00FCC2F828
:1035E00014C00AE091F803C0BCF1480F05D14FF0B8
:1035F000010C0CFA00FCC2F810C0401C0828D1D302
:103600001460B1F800C0BCF1FF0F34DD5468002035
:103610002EE000F1080C4FF0010808FA0CF3B1F8A5
:1036200000C00CEA03069E4221D183004FF00F0C2C
:103630000CFA03F7BC4305FA03FC4CEA040491F8C6
:1036400003C0BCF1280F05D100F1080C08FA0CF8F2
:10365000C2F8148091F803C0BCF1480F07D100F103
:10366000080C4FF0010808FA0CF8C2F81080401C52
:103670000828CED35460BDE8F0814FF6FF71018079
:10368000022181700421C1707047024600209368B6
:103690000B4201D0012000E00020704701468868FD
:1036A00080B2704702460020D3680B4201D001204F
:1036B00000E0002070470146C86880B27047016191
:1036C0007047416170470AB1016100E04161704794
:1036D000C16070474FF480320A4382618161826128
:1036E00082698269704702460020424B18684FF693
:1036F0008073184040EA021008433E4B1860704740
:103700003D49C8617047F0B50A46002300240021F6
:10371000002500F00046B6F1004F02D1354EF169A8
:1037200001E0344E7168C0F3034583B200F44016E3
:10373000B6F5401F08D121F070612E4E766826F054
:1037400070662C4F7E6012E000F48016B6F5801F84
:1037500006D1032606FA05F4A14341F0706106E0A4
:10376000460D360103FA06F6B14341F0706122B10D
:10377000460D360103FA06F6314300F00046B6F175
:10378000004F02D11B4EF16101E01A4E7160F0BD95
:1037900030B500228B071C0F0F2303FA04F2154BE0
:1037A00008338C1053F824309343124C08348D1096
:1037B00044F8253023468C1053F824308C07240F0E
:1037C00000FA04F423430B4C08348D1044F82530E0
:1037D00030BD0A490860704700080140000C0140F4
:1037E000001001400014014000180140001C01407D
:1037F000002001400000014000002042DC00204287
:10380000DB48006840F00100D9490860084640687C
:10381000D8490840D649486008460068D64908405B
:10382000D34908600846006820F4802008600846F4
:10383000406820F4FE0048604FF41F008860704725
:10384000CB49096821F48031C94A116011460968E1
:1038500021F480211160B0F5803F03D0B0F5802FB6
:103860000ED106E0C249096841F48031C04A1160B6
:1038700007E0BF49096841F4A021BD4A116000E09A
:1038800000BF00BF704710B5014600220023002092
:103890004A11012A02D1B64C236806E0022A02D15D
:1038A000B34C236A01E0B24C636A01F01F020124A9
:1038B00094401C4201D0012000E0002010BD70B5F2
:1038C00000240025002600BF3120FFF7DCFF06465C
:1038D000641CB4F5A06F01D0002EF5D03120FFF7A5
:1038E000D2FF08B1012500E00025284670BD014641
:1038F00000209F4A106820F0F80040EAC1001060E4
:1039000070479E490860704702460020984B5868EF
:1039100020F47C1042EA01031843954B586070472D
:1039200096490866704701460020914A506820F089
:1039300003000843506070478D48406800F00C0059
:103940007047014600208A4A506820F0F000084382
:103950005060704701460020854A506820F4E060BE
:1039600008435060704701460020814A506820F4A7
:10397000605040EAC1005060704729B17C4A527AD9
:1039800002437B4B5A7204E0794A527A8243784B65
:103990005A7270477A490860704701460020744A9D
:1039A000506820F440400843506070470021754A39
:1039B00011706F4A82F82010012802D0042808D123
:1039C00003E001216F4A117004E005216D4A117076
:1039D00000E000BF00BF70476B4908607047644952
:1039E000096A0143624A11627047674944390860B5
:1039F000704730B500210022002400235C4D6D6823
:103A000005F00C0121B1042905D0082923D105E0D6
:103A10005E4D056022E05D4D05601FE0544D6D6810
:103A200005F47012524D6D6805F48034022505EBE3
:103A300092421CB9564D554305600BE04C4D6D68E4
:103A400015F4003F03D0524D5543056002E04F4D41
:103A50005543056002E04D4D056000BF00BF444D79
:103A60006D6805F0F00109094A4D6B5C0568DD40A1
:103A700045603F4D6D6805F4E061090A454D6B5C9A
:103A80004568DD4085603A4D6D6805F46051C90AAE
:103A9000404D6B5C4568DD40C560354D6D6805F493
:103AA0004041890B3C4D6B5CC568B5FBF3F5056186
:103AB00030BD29B12E4A526902432D4B5A6104E0B0
:103AC0002B4A526982432A4B5A61704729B1284ACE
:103AD00092690243264B9A6104E0254A9269824327
:103AE000234B9A61704729B1214AD2690243204B86
:103AF000DA6104E01E4AD26982431D4BDA617047E5
:103B000029B11B4AD2680243194BDA6004E0184A13
:103B1000D2688243164BDA60704729B1144A1269A1
:103B20000243134B1A6104E0114A12698243104B9D
:103B30001A61704714494039086070470F49C864DA
:103B400070470B49C87170470948406A40F080705F
:103B500007494862704701460020054A92680A42B8
:103B600001D0012000E000207047014988727047B1
:103B7000001002400000FFF8FFFFF6FE0000424286
:103B8000D8004242201002408004424200127A00D3
:103B900000093D00430000205300002010B50446FA
:103BA000FE48844208D10121C014FFF7A9FF00217B
:103BB000E014FFF7A5FFC4E0B4F1804F08D1012164
:103BC0000846FFF7AAFF00210120FFF7A6FFB8E093
:103BD000F348844208D101210220FFF79EFF002113
:103BE0000220FFF79AFFACE0EE48844208D10121A1
:103BF0000420FFF792FF00210420FFF78EFFA0E0D2
:103C0000E948844208D101210820FFF786FF0021FE
:103C10000820FFF782FF94E0E448844208D10121A4
:103C20001020FFF77AFF00211020FFF776FF88E0D1
:103C3000DF48844208D101212020FFF76EFF0021D8
:103C40002020FFF76AFF7CE0DA48844208D1012196
:103C50004014FFF755FF00216014FFF751FF70E09B
:103C6000D548844209D10121C804FFF749FF00214A
:103C70004FF40020FFF744FF63E0D048844209D1AD
:103C800001210805FFF73CFF00214FF48010FFF7EA
:103C900037FF56E0CA48844209D101214805FFF7A1
:103CA0002FFF00214FF40010FFF72AFF49E0C5481D
:103CB000844208D101214020FFF72FFF002140203E
:103CC000FFF72BFF3DE0C048844208D1012180204E
:103CD000FFF723FF00218020FFF71FFF31E0BB48E3
:103CE000844208D101218015FFF717FF0021A0159C
:103CF000FFF713FF25E0B648844209D101210804EB
:103D0000FFF7FEFE00214FF48030FFF7F9FE18E0C8
:103D1000B048844209D101214804FFF7F1FE002197
:103D20004FF40030FFF7ECFE0BE0AB48844208D1C3
:103D300001218804FFF7E4FE00214FF48020FFF703
:103D4000DFFE10BD00220288944B98420ED0994BA2
:103D500098420BD0B0F1804F08D0914B984205D0DB
:103D6000904B984202D0904B984204D14FF68F73FB
:103D70001A404B881A438D4B984207D08C4B98427F
:103D800004D04FF6FF431A40CB881A4302808B8839
:103D900083850B880385814B98420BD0854B9842D5
:103DA00008D08B4B984205D08A4B984202D08A4B60
:103DB000984201D10B7A038601238382704770B544
:103DC000002400220023058C4FF6FE763540058442
:103DD000028C8388048B4FF68F752C40B51E2C40C7
:103DE0000D882C43751E2A400D892A434D882A438D
:103DF0006A4DA8420BD06F4DA84208D0744DA8421E
:103E000005D0744DA84202D0734DA84213D14FF68D
:103E1000F7752A404D892A434FF6FB752A408D8855
:103E20002A434FF6FF652B404FF6FF552B408D89F7
:103E30002B43CD892B4383800483CD8885860284E0
:103E400070BD70B5002400220023058C4FF6EF767C
:103E500035400584028C8388048B48F6FF752C401E
:103E60004FF6FF452C400D884FF6FF7606EA0525F4
:103E70002C434FF6DF752A400D8906EA05152A43C3
:103E80004D8806EA05152A43444DA84202D0494D03
:103E9000A8421DD14FF67F752A404D894FF6FF7617
:103EA00006EA05152A434FF6BF752A408D8806EAB3
:103EB00005152A434FF6FF352B404FF2FF752B4077
:103EC0008D8906EA85052B43CD8906EA85052B43B6
:103ED00083800483CD880587028470BD70B500247B
:103EE00000220023058C4FF6FF6635400584028CC6
:103EF0008388848B4FF68F752C404FF6FC752C40D1
:103F00000D882C434FF6FF552A400D894FF6FF765A
:103F100006EA05252A434D8806EA05252A431F4D52
:103F2000A84202D0234DA8421DD14FF2FF752A406E
:103F30004D894FF6FF7606EA05252A434FF6FF35F1
:103F40002A408D8806EA05252A434EF6FF752B4048
:103F50004DF6FF752B408D8906EA05152B43CD895B
:103F600006EA05152B4383808483CD8885870284E8
:103F700070BD70B5002200230024058C4EF6FF763C
:103F800035400584038C8488828B48F6FF752A406F
:103F90004FF6FF452A400D8820E00000002C01402C
:103FA0000004004000080040000C004000100040E9
:103FB0000014004000340140004C0140005001401A
:103FC0000054014000180040001C00400020004048
:103FD0000040014000440140004801404FF6FF7698
:103FE00006EA05252A434DF6FF752B400D8906EAA2
:103FF00005352B434D8806EA05352B43FA4DA8427B
:1040000002D0FA4DA84208D14BF6FF752C408D899D
:104010004FF6FF7606EA85152C4384808283CD888F
:10402000A0F84050038470BD828B4FF2FF331A40DA
:104030008283828B4FF6FF7303EA01231A43828344
:104040007047F0B50C461546002200210026078C6B
:104050004EF6FF7C07EA0C070784828B018C4FF633
:10406000FF7707EA043640F6FF473A404FF6FF77FE
:1040700007EA05273A434FF6FF7707EA03373A4343
:10408000D94FB8420ED0D94FB8420BD0B0F1804FC3
:1040900008D0D74FB84205D0D64FB84202D0D64F3D
:1040A000B84206D14DF6FF77394046F48057394380
:1040B00005E047F6FF57394044F48057394382837F
:1040C0000184F0BD828B4FF6F3731A408283828B9A
:1040D0000A4382837047F0B50C4615460022002142
:1040E0000026078C4FF6FF6C07EA0C070784828BCB
:1040F000018C4FF6FF7707EA04264FF60C773A401B
:104100004FF6FF7707EA03172F433A43B64FB842FB
:104110000ED0B64FB8420BD0B0F1804F08D0B44F9C
:10412000B84205D0B34FB84202D0B34FB84206D11F
:104130004FF6FF57394046F48077394305E04FF298
:10414000FF57394044F48077394382830184F0BDBE
:10415000028B4FF2FF331A400283028B4FF6FF733C
:1041600003EA01231A4302837047F0B50C46154653
:10417000002200210026078C4FF6EF7C07EA0C078F
:104180000784028B018C4FF6FF7707EA041640F68E
:10419000FF473A404FF6FF7707EA03373A434FF6B7
:1041A000FF7707EA05273A438F4FB8420ED08F4F6B
:1041B000B8420BD0B0F1804F08D08D4FB84205D037
:1041C0008C4FB84202D08C4FB84206D14FF6DF7701
:1041D000394046F01007394305E04FF65F77394024
:1041E00044F01007394302830184F0BD028B4FF67F
:1041F000F3731A400283028B0A4302837047F0B5BF
:104200000C46154600220021068C4FF6FE773E40F4
:104210000684028B018C4FF60C7632407E1C06EA37
:1042200003162E433243704EB0420ED06F4EB04252
:104230000BD0B0F1804F08D06D4EB04205D06D4E1E
:10424000B04202D06C4EB04206D14FF6FD763140FE
:1042500044F00106314305E04FF6F576314044F075
:104260000106314302830184F0BD70B505460C465A
:104270005D4885420ED05D4885420BD0B5F1804F38
:1042800008D05B48854205D05A48854202D05A483A
:10429000854200D100E000BF208850B92389A28860
:1042A00061882846FFF7ABFFE1882846FFF79EFFAD
:1042B00025E0208804280AD12389A288618828461D
:1042C000FFF753FFE1882846FFF742FF17E02088F9
:1042D00008280AD12389A28861882846FFF7FBFEB7
:1042E000E1882846FFF7EEFE09E02389A28861886D
:1042F0002846FFF7A6FEE1882846FFF795FE70BD29
:104300002DE9F04105460C4600260127608808B9D2
:10431000022600E00026A088012801D1022700E043
:1043200001272088A0B92389A28861882846FFF741
:1043300066FFE1882846FFF759FF23893A46314650
:104340002846FFF712FFE1882846FFF701FF13E038
:104350002389A28861882846FFF707FFE18828465D
:10436000FFF7F6FE23893A4631462846FFF747FF16
:10437000E1882846FFF73AFFBDE8F0810A884B88BC
:104380001A438B881A43CB881A430B891A434B89EB
:104390001A438B891A43A0F8442070474FF6FF71E7
:1043A000818000210180C18041800172704700211D
:1043B000018041808180C180018141818181C181F1
:1043C0007047002101804180012181800021C1804E
:1043D000018170470021018041808180C18001817D
:1043E0004181818170470000002C01400034014070
:1043F0000004004000080040000C004021B1028889
:1044000042F00102028004E002884FF6FE731A4077
:104410000280704731B1B0F8442042F40042A0F865
:10442000442005E0B0F84420C2F30E02A0F8442076
:1044300070471AB183890B43838102E083898B43E0
:10444000838170478182704741EA0203A0F84830B7
:1044500070471AB183890B43838102E083898B43C0
:104460008381704701894FF6F872114001817047CE
:104470000A46002101894FF68F73194011430181CB
:10448000704730B504460D4629462046FFF7F0FF39
:10449000208940F00700208130BD2DE9F04104461D
:1044A0000D4616461F46602D06D13B460122314679
:1044B0002046FFF75AFE05E03B46012231462046E2
:1044C000FFF79DFE29462046FFF7D2FF208940F0E6
:1044D00007002081BDE8F08130B50C46002101893C
:1044E000C9B24FF6FF7505EA032515432543294355
:1044F000018130BD2DE9F04105460E46174698462C
:10450000002443463A4631462846FFF7E5FF2C890A
:104510004FF6F870044044F007044FF68F700440E3
:1045200044F070042C81BDE8F081F0B504460D46DE
:1045300016461F463B46324629462046FFF7CCFF2B
:10454000208940F480402081F0BD0185828270473F
:104550000A46002101884FF68F73194011430180EC
:104560007047F0B50C4615461E4600210022002378
:104570000189028B038C4FF6F877394021434FF6BF
:10458000FC473A4040F201173A434FF6DD773B4093
:104590004FF6FF7707EA06172F433B43018102835B
:1045A0000384F0BD0A460021018B4FF68F7319403A
:1045B0001143018370470A460021018B48F6FF73BF
:1045C00019404FF6FF7303EA022319430183704732
:1045D0000A460021818B4FF68F7319401143818366
:1045E00070470A460021818B48F6FF7319404FF649
:1045F000FF7303EA022319438183704721B10288C4
:1046000042F08002028004E002884FF67F731A4075
:104610000280704721B1828842F00402828004E067
:1046200082884FF6FB731A408280704721B18288DE
:1046300042F00802828004E082884FF6F7731A4045
:104640008280704721B1828842F00102828004E0BA
:1046500082884FF6FE731A40828070470A46002116
:10466000018B4FF6F77319401143018370470A46D7
:104670000021018B4FF2FF7319404FF6FF7303EADD
:1046800002231943018370470A460021818B4FF6AC
:10469000F77319401143818370470A460021818BCB
:1046A0004FF2FF7319404FF6FF7303EA02231943D9
:1046B000818370470A460021018B4FF6FB73194036
:1046C0001143018370470A460021018B4FF6FF33E7
:1046D00019404FF6FF7303EA022319430183704721
:1046E0000A460021818B4FF6FB73194011438183E9
:1046F00070470A460021818B4FF6FF3319404FF671
:10470000FF7303EA02231943818370470A4600219D
:10471000018B4FF67F7319401143018370470A469E
:104720000021018BC1F30E014FF6FF7303EA022350
:104730001943018370470A460021818B4FF67F732E
:1047400019401143818370470A460021818BC1F3D0
:104750000E014FF6FF7303EA02231943818370476A
:104760000A460021018C4FF6FD7319401143018464
:1047700070470A460021018C4FF6F7731940114328
:10478000018470470A460021018C4FF6DF731940FF
:104790004FF6FF7303EA02131943018470470A4678
:1047A0000021018C4FF67F7319404FF6FF7303EA27
:1047B00002131943018470470A460021018C4FF609
:1047C000FF5319404FF6FF7303EA02231943018494
:1047D00070470A460021018C4FF2FF7319404FF6D3
:1047E000FF7303EA02231943018470470A4600213C
:1047F000018C4DF6FF7319404FF6FF7303EA023345
:1048000019430184704730B5002301248C40A3B2C2
:10481000048C9C430484048C02FA01F5ADB22C4351
:10482000048430BD30B5002304248C40A3B2048C32
:104830009C430484048C02FA01F5ADB22C43048439
:1048400030BD70B5034600200024184618300125FD
:104850008D40ACB21D8CA5431D8409B1082909D136
:1048600000EB6100056825F07005056005681543DB
:1048700005600EE00D1FC5F34E052844056825F4BC
:10488000E045056005684FF6FF7606EA02263543E7
:10489000056070BD21B1028842F00202028004E08E
:1048A00002884FF6FD731A400280704721B10288DA
:1048B00042F00402028004E002884FF6FB731A40C3
:1048C0000280704721B1828842F08002828004E039
:1048D00082884FF67F731A408280704702884FF6B5
:1048E000F7731A40028002880A4302807047828868
:1048F0004FF68F731A40828082880A438280704705
:1049000002894FF6F8731A40028102890A43028134
:10491000704702894FF67F731A40028102890A4369
:104920000281704781847047818570478186704716
:104930000187704781877047A0F840107047028850
:104940004FF6FF431A40028002880A4302807047F4
:104950000146888E70470146088F70470146888F50
:1049600070470146B1F8400070470146888C704797
:104970000146088D704702460020138A0B4201D081
:10498000012000E000207047CA430282704730B522
:104990000246002000230024158A05EA01039589B8
:1049A00005EA010413B10CB1012000E0002030BD84
:1049B000CA4302827047000010B50446FB48844297
:1049C00009D101218803FFF79BF800214FF48040B3
:1049D000FFF796F832E0F648844209D101214804F5
:1049E000FFF79BF800214FF40030FFF796F825E021
:1049F000F048844209D101218804FFF78EF8002194
:104A00004FF48020FFF789F818E0EB48844209D181
:104A10000121C804FFF781F800214FF40020FFF7BF
:104A20007CF80BE0E548844208D101210805FFF736
:104A300074F800214FF48010FFF76FF810BD2DE9D6
:104A4000F04786B005460E460024A24600BFA146A8
:104A50000027B08900B100BF2F462C8A4CF6FF70AA
:104A60000440F08804432C82AC894EF6F3100440D5
:104A7000B08831890843718908430443AC81AC8A0A
:104A80004FF6FF400440B0890443AC8201A8FEF712
:104A9000B0FFC648874202D1DDF810A001E0DDF882
:104AA0000CA0A88910F4004F08D00AEBCA0000EB54
:104AB0000A1031684900B0FBF1F807E00AEBCA00C0
:104AC00000EB0A1031688900B0FBF1F86420B8FBF4
:104AD000F0F004012009642101FB1089A88910F479
:104AE000004F08D0322000EBC900B0FBF1F000F01D
:104AF0000700044308E0322000EB09106421B0FBFA
:104B0000F1F000F00F0004432C8106B0BDE8F087FF
:104B10004FF41651016000218180C18001810C2178
:104B2000418100218181704710B502460020108A22
:104B30004FF2FF0318400B884C8823438C88234393
:104B4000CC8823431843108210BD0021018041808E
:104B50008180C180704721B1828942F400528281F4
:104B600004E082894DF6FF731A4082817047F0B5E8
:104B700003460024002600250020A1F510676A3FA7
:104B800000D100BF1846C1F3421401F01F060127EF
:104B900007FA06F5012C01D10C3004E0022C01D1FA
:104BA000103000E014301AB107682F43076002E0AC
:104BB0000768AF430760F0BD1AB1838A0B43838255
:104BC00002E0838A8B4383827047028A4FF6F07338
:104BD0001A400282028A0A430282704782894FF297
:104BE000FF731A40828182890A438281704721B112
:104BF000828942F00202828104E082894FF6FD73CD
:104C00001A4082817047028A4FF6DF731A4002828F
:104C1000028A0A430282704721B1028A42F480422A
:104C2000028204E0028A4BF6FF731A400282704748
:104C3000C1F308028280704701468888C0F30800EB
:104C40007047818941F0010181817047028BD2B2A6
:104C50000283028B42EA012202837047028B02F434
:104C60007F420283028B0A430283704721B1828A0A
:104C700042F02002828204E0828A4FF6DF731A40FB
:104C80008282704721B1828A42F01002828204E05F
:104C9000828A4FF6EF731A408282704721B1828A6E
:104CA00042F00802828204E0828A4FF6F7731A40CB
:104CB0008282704721B1828942F40042828103E0FE
:104CC0008289C2F30E028281704721B1828A42F446
:104CD0000062828204E0828A4FF2FF731A4082826D
:104CE0007047828A4FF6FB731A408282828A0A4397
:104CF0008282704721B1828A42F00202828204E0FD
:104D0000828A4FF6FD731A40828270470246002065
:104D1000B1F5007F00D100BF13880B4201D0012004
:104D200000E00020704701F40072B2F5007F00D16E
:104D300000BFCA430280704770B5024600240023BA
:104D400000250020A1F510666A3E00D100BFC1F326
:104D5000421501F01F03012606FA03F3012D02D1CB
:104D60009689334006E0022D02D1168A334001E0D5
:104D7000968A33400C12012606FA04F41688344051
:104D800013B10CB1012000E0002070BD10B500226D
:104D90000023A1F510646A3C00D100BF0A1201246F
:104DA0009440A3B2DC43048010BD000000380140F1
:104DB0000044004000480040004C004000500040CB
:104DC00010B50446BE48844208D101218014FEF784
:104DD00097FE0021A014FEF793FE16E0B948844226
:104DE00008D101210014FEF798FE00212014FEF7DF
:104DF00094FE0AE0B448844207D10121C013FEF7B3
:104E00008CFE0021E013FEF788FE10BD10B50022D5
:104E1000028802F441520B884C8823438C88234338
:104E2000CC8823430C8923434C8923438C89234317
:104E3000CC8923431A430280838B4FF2FF742340B3
:104E400083830B8A038210BD2DE9F04F85B00546A0
:104E50000C464FF0000902274FF000084FF0010BFD
:104E60000026B246A88B4FF240010840A8830220DA
:104E70002884B5F81C90A068022801D100BF38E052
:104E8000A08810B94FF0010B01E04FF0020B8D48E4
:104E9000854200D100E000BF6846FEF7AAFDDDF8BC
:104EA00000A0E088B0F5007F0AD14FEA1A2000EB9D
:104EB00080004000A168B0FBF1F0401D86B20BE01D
:104EC0004FEA4B10BAFBF0F000EB80004000A16805
:104ED000B0FBF1F0401D86B20A20B6FBF0F606F0FA
:104EE0000108A6EB0800C0F34F074FF6FF7000EA79
:104EF0000828022F01DBFF2F02DD02274FF00008F8
:104F0000E08840EA080038432884A088A189084343
:104F1000618808432188084340F4006040EA090999
:104F2000A5F81C9005B0BDE8F08F002101804180FC
:104F30008180C180018141818181C18107210182FC
:104F400070470021018041808180C1800221816001
:104F500000218181704721B1028842F04002028025
:104F600004E002884FF6BF731A400280704721B1F7
:104F7000828B42F48062828304E0828B4FF6FF339F
:104F80001A408283704730B5002400230C1101259C
:104F9000A540ABB21AB185881D43858002E08588A3
:104FA0009D43858030BD1AB183880B43838002E026
:104FB00083888B438380704781817047014688894D
:104FC0007047A1F57E42FF3A04D0028842F4807215
:104FD000028004E002884FF6FF631A4002807047A7
:104FE00021B1828842F00402828004E082884FF678
:104FF000FB731A408280704702884FF2FF731A4099
:10500000028002880A4302807047018841F480517F
:105010000180704721B1028842F40052028004E00E
:1050200002884DF6FF731A40028070470246002046
:10503000012901D0108B00E0908A70470146088A50
:105040007047B1F5804F04D1028842F4804202805B
:1050500004E002884BF6FF731A4002807047024654
:10506000002013890B4201D0012000E0002070478E
:10507000CA4302817047F0B5024600200024002395
:10508000002501F00F070126BE40B4B20B11012626
:105090009E40B3B2968806EA03051689264202D0DE
:1050A0000DB1012000E00020F0BD10B5002201F09C
:1050B0000F040123A3409AB2D343038110BD000023
:1050C0000030014000380040003C00402DE9F04F26
:1050D0008BB004460D46164699463146284602F0E6
:1050E0001DFA2061484601F028FCCDE9060120693F
:1050F00001F086FF0746DDE9062301F071FC8246D8
:105100000022DA4B01F092FACDE90801D4E90873E4
:105110003A4601F0CFF9C4E90801D4E9040102F0EC
:10512000FDF9A062A16AA06802F022F9074601F029
:1051300067FFCDE90601606801F062FF8246D4E9AD
:1051400008733A4601F04CFCCDE902012169206860
:1051500002F00EF9074601F053FFCDE90001DDE949
:10516000022301F0A7F9CDE90401DDE9062301F0EE
:10517000A1F9CDE9080101F06BF9E06220696061F5
:105180000BB0BDE8F08F7FB5B9480068B949086039
:10519000B74840684860B649C86802F0BDF8B549EC
:1051A0008860B54A1168B34A106802F0B7F9B3498C
:1051B0000860084600680860AF4A5168AD4A506808
:1051C00002F0ACF9AD494860084640684860AC4917
:1051D000C86CAC4902F0A2F9AB498860A6484268A5
:1051E000A44800234168A948FFF770FFA449B1F91A
:1051F000140002F091F80446A44800232246C16A34
:10520000A348FFF763FF9C4802689A48002301689F
:10521000A048FFF75BFF9A49B1F9100002F07CF853
:1052200004469C4800232246C16A9B48FFF74EFF74
:10523000914882688F48002381689848FFF746FFAD
:105240008F49B1F9180002F067F80446894881686F
:105250004FF0404002F08CF80546002322462946D4
:105260008F48FFF733FF8249886802F055F88D496F
:105270000860854881688C4802F07AF804468948BD
:105280000168204602F040F9864908608048C06AFB
:10529000864908608048C06A854908608048C06ABD
:1052A00084490860814801687E48006802F036F948
:1052B00006467F480168304602F030F905467D48D1
:1052C0000168284602F02AF9044601F0E9FF00B21D
:1052D0000290764801687348006801F0BDFE0646FA
:1052E00073480168304601F0B7FE05467148016811
:1052F000284602F013F9044601F0D2FF00B20090F4
:105300006A4801686748006802F008F9064668487C
:105310000168304601F0A0FE05466648016828464F
:1053200001F09AFE044601F0BBFF00B203905F4813
:1053300001685C48006801F08FFE06465C48016821
:10534000304602F0EBF805465A480168284601F05D
:1053500083FE044601F0A4FF00B201905648007895
:10536000A5280AD1039C23B2029C22B2019C21B23F
:10537000009C20B2FBF786FF05E000231A46194681
:105380001846FBF77FFF4D48807AA52807D1039880
:1053900003B2029802B205210846FBF773FF7FBDF6
:1053A00010B547480078401C45490870FDF7E5FCFA
:1053B000FDF732FD00F0BAFA41480078052806D121
:1053C00000203F490870FCF70DF9FFF7DCFE10BD27
:1053D00010B510203B4908800020488008208880B4
:1053E00039490968394A881803223649FCF787FA8F
:1053F000002010BD10B54FF0824024490860002005
:1054000048608860324822490860002048604FF0B8
:105410007E5088604FF082401E490860002048603E
:1054200088602B481C490860002048604FF07E507F
:1054300088601A490860002048608860254818493B
:10544000086000204860886023A000F00DFB10BDBC
:1054500010B51D4909681D4A881803222349FCF725
:105460003DFA23A000F000FB10BD000080842E4117
:10547000B40700209C070020D4050020A8070020C6
:10548000E0050020EC511441900700207006002038
:10549000A0060020D00600200007002030070020D2
:1054A00060070020600000200000C8426800002063
:1054B000640000206C0000207C0000203A010020E5
:1054C0005C0000207000002058000020007C0008D4
:1054D000CDCC4C3E0000A041504944B3F5CABCBB02
:1054E000AFCDEAB3C92E2E2E0D0A000076000020A3
:1054F000B4D3464C415348D6D0B6C1C8A1B2CECAE7
:10550000FD2E2E2E0D0A00002DE9FC5FF949897849
:10551000A1F1320001F000FFF7494860F748006848
:1055200001F00BFA04460D46F349486801F068FDA6
:1055300080460022F24B01F079F806460022F14B3A
:1055400001F04EFA22462B46CDE9000100F0B2FFF1
:10555000824600F07DFFE8494860486801F050FD50
:1055600006460022E74B01F039FB02D20020E54954
:1055700003E0E149486801F043FD044600F068FF9C
:10558000DD494860486801F03BFD06460022DE4BDD
:1055900001F0EAF902D20020DB4903E0D64948686D
:1055A00001F02EFD044600F053FFD3494860D14975
:1055B000C978A1F1320001F0AFFECF490860D348AD
:1055C000006801F0BAF904460D46CB49086801F0BD
:1055D00017FD80460022CA4B01F028F8064600223B
:1055E000C84B01F0FDF9824622462B4600F062FFCF
:1055F000CDE9000100F02CFFBF490860086801F008
:10560000FFFC06460022BF4B01F0E8FA02D2002060
:10561000BC4903E0B849086801F0F2FC044600F018
:1056200017FFB5490860086801F0EAFC0646002249
:10563000B54B01F099F902D20020B34903E0AE491D
:10564000086801F0DDFC044600F002FFAA4908608A
:10565000A84800792D38C860C86801F06EF9064680
:105660000022A74B00F0E2FF80460022A54B01F08C
:10567000B7F9044601F032F99F49C860C86801F0E3
:105680005CF9064600229F4B01F0A8FA02D20020E6
:105690009C4903E09849C86801F04FF9044601F0BD
:1056A0001DF99549C860C86801F047F9064600220F
:1056B000954B01F059F902D20020934903E08E493D
:1056C000C86801F03AF9044601F008F98A49C8604F
:1056D000884800788749497800EB0120864988602E
:1056E0008448C07F8A490870BDE8FC9F2DE9FC5FB3
:1056F00088480078AA287DD186484078BB28FAD10E
:1057000084490979A1F1320001F006FE7A49486026
:105710007A48006801F011F904460D467649486858
:1057200001F06EFC82460022754B00F07FFF804640
:105730000022744B01F054F9064622462B4600F035
:10574000B9FECDE9000100F083FE6B49486048686E
:1057500001F056FC064600226A4B01F03FFA02D2E5
:105760000020684903E06449486801F049FC0446A8
:1057700000F06EFE60494860486801F041FC064652
:105780000022614B01F0F0F802D200205E4903E0F4
:105790005949486801F034FC044600F059FE564966
:1057A00048605C494979A1F1320001F0B5FD5249E8
:1057B00008605648006801F0C0F804460D464E499E
:1057C000086801F01DFC824600224D4B00F02EFFC0
:1057D000804600224B4B01F003F9064622462B4639
:1057E00000F068FECDE9000100F032FE4249086099
:1057F000086800E098E001F003FC06460022414BF7
:1058000001F0ECF902D200203E4903E03A49086871
:1058100001F0F6FB044600F01BFE374908600868FB
:1058200001F0EEFB06460022374B01F09DF802D254
:105830000020354903E03049086801F0E1FB0446E7
:1058400000F006FE2C49086032488079C0F1320031
:10585000C860C86801F071F806460022284B00F0C5
:10586000E5FE824600222C4B01F0BAF804460022E5
:10587000244B01F0B5F8804601F030F81E49C860AD
:10588000C86801F05AF8064600221E4B01F0A6F93E
:1058900002D200201B4903E01749C86801F04DF807
:1058A000044601F01BF81449C860C86801F045F8C7
:1058B00006460022144B01F057F802D2002012498C
:1058C00003E00D49C86801F038F8044601F006F815
:1058D0000949C8600F4880780E49C97800EB01205B
:1058E000054988600B48C07FA52817D10849087072
:1058F0001AE000003A010020B407002084000020D4
:105900000000494000003E4000003EC080000020F2
:105910007C00002094050020000022404C48C07FFD
:1059200010B900204B490870BDE8FC9F70B50024F9
:105930008820FCF717F9AF20FCF714F91C20FCF7BE
:1059400011F945494868454901F086FB064601F0D2
:10595000A7FC0546C5F30720FCF711F92044C4B2A3
:10596000E8B2FCF70CF92044C4B23B4908683B4953
:1059700001F072FB064601F093FC0546C5F30720D3
:10598000FCF7FDF82044C4B2E8B2FCF7F8F8204474
:10599000C4B231498868314901F05EFB064601F026
:1059A0007FFC0546C5F30720FCF7E9F82044C4B2A4
:1059B000E8B2FCF7E4F82044C4B24FF08040808E97
:1059C0000A2190FBF1F500210812FCF7D8F82044D9
:1059D000C4B2E8B2FCF7D3F82044C4B24FF0804020
:1059E000008F0A2190FBF1F500210812FCF7C7F89F
:1059F0002044C4B2E8B2FCF7C2F82044C4B24FF06D
:105A00008040808F0A2190FBF1F500210812FCF7FD
:105A1000B6F82044C4B2E8B2FCF7B1F82044C4B2EE
:105A20000F4800884FF00A0190FBF1F54FF000019C
:105A30004FEA2120FCF7A3F82044C4B2E8B2FCF7F7
:105A40009EF82044C4B22046FCF799F870BD0000CF
:105A5000940500207C000020D4050020000048436D
:105A600040000040704700000FB4044910B503AA7D
:105A7000029800F0E3F810BC5DF814FB2C00002045
:105A80002DE9F04104460E46002020622046E168E0
:105A9000884738B3252806D0D4E901219047206AE9
:105AA000401C2062F2E7E168204600278847050095
:105AB00018D0A5F14100192802D820354FF400670D
:105AC0003246294620462760FAF74AFB40B10128B2
:105AD00004D0F61D26F007060836D7E7361DD5E7B1
